:100000000C9446000C9465000C9465000C946500FB
:100010000C9465000C9465000C9465000C946500CC
:100020000C9465000C9465000C9465000C946500BC
:100030000C9465000C9465000C9465000C946500AC
:100040000C9465000C9465000C9465000C9465009C
:100050000C9465000C9465000C9465000C9465008C
:100060000C9465000C9465000C9465000C9465007C
:100070000C9465000C9465000C9465000C9465006C
:100080000C9465000C9465000C94650011241FBE4F
:10009000CFEFD0E4DEBFCDBF11E0A0E0B1E0E8E7F4
:1000A000F9E000E00BBF02C007900D92AE31B1073E
:1000B000D9F721E0AEE1B1E001C01D92A632B2074E
:1000C000E1F70E94CA020C94BA040C940000CF938A
:1000D000DF9300D01F92CDB7DEB789837B836A831D
:1000E00089818A3031F48A819B81BC018DE00E9434
:1000F000670080EC90E0FC018081882F90E08072A6
:100100009927892BB1F386EC90E02981FC012083AB
:1001100080E090E00F900F900F90DF91CF910895C5
:100120000F931F93CF93DF9300D000D0CDB7DEB7EE
:1001300069837A838B839C8380911E0190911F0138
:10014000A0912001B09121019C01AD0169817A81CA
:100150008B819C810E94E902882309F477C020E00A
:1001600030E0A90169817A818B819C810E94E9023A
:10017000882351F481E990E021E930E0F901208100
:100180002870FC01208309C081E990E021E930E07A
:10019000F90120812360FC01208328E539E344E74D
:1001A0005FE369817A818B819C810E94E9028823C7
:1001B00044F488E990E02FEF3FEFFC013183208386
:1001C00034C020E034E244EF56E469817A818B81C7
:1001D0009C810E944804181634F488E990E0FC01E0
:1001E0001182108222C008E910E020E030E040E0F7
:1001F00053E469817A818B819C810E944D04DC01EA
:10020000CB019C01AD0160E074E284EF9AE40E94AE
:10021000EE02DC01CB01BC01CD010E946003DC01D8
:10022000CB010197F8019183808384E990E0FC0180
:100230001182108289819A81AB81BC8180931E01D9
:1002400090931F01A0932001B093210100000F9013
:100250000F900F900F90DF91CF911F910F91089504
:10026000CF93DF93CDB7DEB780E990E020E4FC01C7
:10027000208381E990E02BE0FC01208360E070E0C6
:10028000CB010E9490000000DF91CF910895CF93A1
:10029000DF93CDB7DEB780E990E0FC01108281E901
:1002A00090E0FC0110820000DF91CF910895CF9380
:1002B000DF93CDB7DEB78091230190912401823086
:1002C000910509F497C08330910528F4009771F0E7
:1002D0000197D9F115C18430910509F4C2C0843069
:1002E000910558F0059709F4DFC00AC183E090E05A
:1002F000909324018093230103C11092220180E294
:1003000090E0FC018081882F90E080959095877027
:100310009927019739F083E090E09093240180932E
:100320002301EEC080E290E0FC018081882F90E004
:100330008095909587709927019739F482E090E035
:100340009093240180932301DBC081E080932201FC
:1003500080E290E0FC018081882F90E0809590956C
:1003600087709927019761F482E090E090932401CF
:100370008093230160E070E0CB010E949000C0C038
:1003800080E290E0FC018081882F90E0809590953C
:1003900087709927019709F4AAC080E290E0FC01D8
:1003A0008081882F90E0809590958770992702979B
:1003B00039F484E090E0909324018093230197C066
:1003C00080E290E0FC018081882F90E080959095FC
:1003D00087709927049739F485E090E09093240181
:1003E0008093230184C081E090E090932401809366
:1003F00023017DC080E290E0FC018081882F90E0A5
:100400008095909587709927019739F482E090E064
:1004100090932401809323016CC080E290E0FC0162
:100420008081882F90E08095909587709927892BFF
:1004300009F05FC080912201882339F481E090E0C7
:10044000909324018093230156C080912201813032
:1004500009F051C083E090E0909324018093230140
:100460004AC080E290E0FC018081882F90E0809576
:10047000909587709927029739F484E090E09093E3
:1004800024018093230139C081E090E090932401FE
:100490008093230180912501873078F58091250193
:1004A0008F5F8093250129C080E290E0FC0180816C
:1004B000882F90E08095909587709927049739F45C
:1004C00085E090E0909324018093230118C081E09F
:1004D00090E090932401809323018091250188234B
:1004E00071F08091250181508093250108C00000A2
:1004F00007C0000005C0000003C0000001C00000EC
:10050000809123019091240183309105C1F08430C2
:10051000910528F4009749F00197C9F037C084305D
:10052000910589F1059789F131C01092250110924A
:10053000220160E070E0CB010E94900027C0109281
:10054000250160E070E0CB010E9490001FC081E0B7
:100550008093220180912501882F90E0880F991FB8
:10056000825F9E4FFC0180819181CC01A0E0B0E0D0
:10057000BC01CD010E949603DC01CB01BC01CD0181
:100580000E94900003C0000001C000000000DF9145
:10059000CF910895CF93DF93CDB7DEB781E290E09E
:1005A000FC01108282E290E02FEFFC01208384E2C4
:1005B00090E02FEFFC01208385E290E0FC011082A7
:1005C00010922401109223010E9430010E945701D1
:1005D000FDCF0E94D30308F481E008950E94020336
:1005E0000C940E040E94070458F00E94000440F08E
:1005F00029F45F3F29F00C94F70351110C94420445
:100600000C94FD030E941F0468F39923B1F3552352
:1006100091F3951B550BBB27AA2762177307840715
:1006200038F09F5F5F4F220F331F441FAA1FA9F3AB
:1006300035D00E2E3AF0E0E832D091505040E69599
:10064000001CCAF72BD0FE2F29D0660F771F881FFA
:10065000BB1F261737074807AB07B0E809F0BB0BED
:10066000802DBF01FF2793585F4F3AF09E3F510501
:1006700078F00C94F7030C9442045F3FE4F3983E47
:10068000D4F3869577956795B795F7959F5FC9F7EA
:10069000880F911D9695879597F90895E1E0660F6B
:1006A000771F881FBB1F621773078407BA0720F0E4
:1006B000621B730B840BBA0BEE1F88F7E09508954D
:1006C0000E9467036894B1110C94420408950E943B
:1006D000270488F09F5798F0B92F9927B751B0F0A9
:1006E000E1F0660F771F881F991F1AF0BA95C9F7B6
:1006F00014C0B13091F00E944104B1E008950C940F
:100700004104672F782F8827B85F39F0B93FCCF3C1
:10071000869577956795B395D9F73EF49095809532
:10072000709561957F4F8F4F9F4F0895E89409C052
:1007300097FB3EF490958095709561957F4F8F4F14
:100740009F4F9923A9F0F92F96E9BB279395F6952A
:10075000879577956795B795F111F8CFFAF4BB0FA8
:1007600011F460FF1BC06F5F7F4F8F4F9F4F16C00C
:10077000882311F096E911C0772321F09EE8872F96
:10078000762F05C0662371F096E8862F70E060E052
:100790002AF09A95660F771F881FDAF7880F9695CB
:1007A000879597F90895990F0008550FAA0BE0E86F
:1007B000FEEF16161706E807F907C0F01216130623
:1007C000E407F50798F0621B730B840B950B39F463
:1007D0000A2661F0232B242B252B21F408950A26C9
:1007E00009F4A140A6958FEF811D811D089597F909
:1007F0009F6780E870E060E008959FEF80EC0895C7
:1008000000240A94161617061806090608950024EF
:100810000A9412161306140605060895092E039469
:10082000000C11F4882352F0BB0F40F4BF2B11F4DD
:1008300060FF04C06F5F7F4F8F4F9F4F089557FD3C
:100840009058440F551F59F05F3F71F04795880F3E
:1008500097FB991F61F09F3F79F0879508951216D5
:1008600013061406551FF2CF4695F1DF08C0161681
:1008700017061806991FF1CF869571056105089432
:100880000895E894BB2766277727CB0197F9089549
:100890000E94D30308F48FEF08950E9460040C9423
:1008A0000E040E94000438F00E94070420F09523F3
:1008B00011F00C94F7030C94FD0311240C944204E2
:1008C0000E941F0470F3959FC1F3950F50E0551FD0
:1008D000629FF001729FBB27F00DB11D639FAA2795
:1008E000F00DB11DAA1F649F6627B00DA11D661FE4
:1008F000829F2227B00DA11D621F739FB00DA11D05
:10090000621F839FA00D611D221F749F3327A00DBE
:10091000611D231F849F600D211D822F762F6A2F5A
:1009200011249F5750409AF0F1F088234AF0EE0FBF
:10093000FF1FBB1F661F771F881F91505040A9F7EC
:100940009E3F510580F00C94F7030C9442045F3FE6
:10095000E4F3983ED4F3869577956795B795F79528
:10096000E7959F5FC1F7FE2B880F911D96958795A0
:0809700097F90895F894FFCFF8
:100978000000000200000000670000000000050100
:0E098800250149015D018801B801ED010B0256
:00000001FF
